{
  "contractName": "EBNftStakeRateHelper",
  "abi": [
    {
      "inputs": [
        {
          "internalType": "address",
          "name": "_token",
          "type": "address"
        },
        {
          "internalType": "uint256[]",
          "name": "_tokenProfixes",
          "type": "uint256[]"
        },
        {
          "internalType": "uint256[]",
          "name": "_boostRates",
          "type": "uint256[]"
        }
      ],
      "stateMutability": "nonpayable",
      "type": "constructor"
    },
    {
      "anonymous": false,
      "inputs": [
        {
          "indexed": false,
          "internalType": "address",
          "name": "token",
          "type": "address"
        },
        {
          "indexed": true,
          "internalType": "uint256[]",
          "name": "tokenPrefixes",
          "type": "uint256[]"
        },
        {
          "indexed": true,
          "internalType": "uint256[]",
          "name": "boostRates",
          "type": "uint256[]"
        }
      ],
      "name": "NftStakeRateUpdated",
      "type": "event"
    },
    {
      "anonymous": false,
      "inputs": [
        {
          "indexed": true,
          "internalType": "address",
          "name": "previousOwner",
          "type": "address"
        },
        {
          "indexed": true,
          "internalType": "address",
          "name": "newOwner",
          "type": "address"
        }
      ],
      "name": "OwnershipTransferred",
      "type": "event"
    },
    {
      "inputs": [],
      "name": "STARRY",
      "outputs": [
        {
          "internalType": "address",
          "name": "",
          "type": "address"
        }
      ],
      "stateMutability": "view",
      "type": "function",
      "constant": true
    },
    {
      "inputs": [],
      "name": "owner",
      "outputs": [
        {
          "internalType": "address",
          "name": "",
          "type": "address"
        }
      ],
      "stateMutability": "view",
      "type": "function",
      "constant": true
    },
    {
      "inputs": [],
      "name": "renounceOwnership",
      "outputs": [],
      "stateMutability": "nonpayable",
      "type": "function"
    },
    {
      "inputs": [
        {
          "internalType": "address",
          "name": "newOwner",
          "type": "address"
        }
      ],
      "name": "transferOwnership",
      "outputs": [],
      "stateMutability": "nonpayable",
      "type": "function"
    },
    {
      "inputs": [
        {
          "internalType": "address",
          "name": "_token",
          "type": "address"
        },
        {
          "internalType": "uint256[]",
          "name": "_tokenProfixes",
          "type": "uint256[]"
        },
        {
          "internalType": "uint256[]",
          "name": "_boostRates",
          "type": "uint256[]"
        }
      ],
      "name": "addToken",
      "outputs": [],
      "stateMutability": "nonpayable",
      "type": "function"
    },
    {
      "inputs": [
        {
          "internalType": "address",
          "name": "_token",
          "type": "address"
        },
        {
          "internalType": "uint256[]",
          "name": "_tokenProfixes",
          "type": "uint256[]"
        },
        {
          "internalType": "uint256[]",
          "name": "_boostRates",
          "type": "uint256[]"
        }
      ],
      "name": "updateToken",
      "outputs": [],
      "stateMutability": "nonpayable",
      "type": "function"
    },
    {
      "inputs": [
        {
          "internalType": "uint256",
          "name": "_tokenId",
          "type": "uint256"
        }
      ],
      "name": "isStarryStakeableNft",
      "outputs": [
        {
          "internalType": "bool",
          "name": "",
          "type": "bool"
        }
      ],
      "stateMutability": "view",
      "type": "function",
      "constant": true
    },
    {
      "inputs": [
        {
          "internalType": "address",
          "name": "_token",
          "type": "address"
        },
        {
          "internalType": "uint256",
          "name": "_tokenId",
          "type": "uint256"
        }
      ],
      "name": "isStakeableNft",
      "outputs": [
        {
          "internalType": "bool",
          "name": "",
          "type": "bool"
        }
      ],
      "stateMutability": "view",
      "type": "function",
      "constant": true
    },
    {
      "inputs": [
        {
          "internalType": "address",
          "name": "_token",
          "type": "address"
        },
        {
          "internalType": "uint256",
          "name": "_tokenId",
          "type": "uint256"
        }
      ],
      "name": "boostRate",
      "outputs": [
        {
          "internalType": "uint256",
          "name": "",
          "type": "uint256"
        }
      ],
      "stateMutability": "view",
      "type": "function",
      "constant": true
    },
    {
      "inputs": [
        {
          "internalType": "string",
          "name": "_self",
          "type": "string"
        },
        {
          "internalType": "string",
          "name": "_needle",
          "type": "string"
        }
      ],
      "name": "startsWith",
      "outputs": [
        {
          "internalType": "bool",
          "name": "",
          "type": "bool"
        }
      ],
      "stateMutability": "pure",
      "type": "function",
      "constant": true
    },
    {
      "inputs": [
        {
          "internalType": "string",
          "name": "_self",
          "type": "string"
        },
        {
          "internalType": "string",
          "name": "_needle",
          "type": "string"
        }
      ],
      "name": "equals",
      "outputs": [
        {
          "internalType": "bool",
          "name": "",
          "type": "bool"
        }
      ],
      "stateMutability": "pure",
      "type": "function",
      "constant": true
    }
  ],
  "bytecode": "0x60806040523480156200001157600080fd5b50604051620024993803806200249983398181016040528101906200003791906200058a565b620000576200004b6200007360201b60201c565b6200007b60201b60201c565b6200006a8383836200013f60201b60201c565b50505062000ab7565b600033905090565b60008060009054906101000a900473ffffffffffffffffffffffffffffffffffffffff169050816000806101000a81548173ffffffffffffffffffffffffffffffffffffffff021916908373ffffffffffffffffffffffffffffffffffffffff1602179055508173ffffffffffffffffffffffffffffffffffffffff168173ffffffffffffffffffffffffffffffffffffffff167f8be0079c531659141344cd1fd0a4f28419497f9722a3daafe3b4186f6b6457e060405160405180910390a35050565b6200014f6200007360201b60201c565b73ffffffffffffffffffffffffffffffffffffffff16620001756200049160201b60201c565b73ffffffffffffffffffffffffffffffffffffffff1614620001ce576040517f08c379a0000000000000000000000000000000000000000000000000000000008152600401620001c590620007ac565b60405180910390fd5b6000600160008573ffffffffffffffffffffffffffffffffffffffff1673ffffffffffffffffffffffffffffffffffffffff168152602001908152602001600020805490501462000256576040517f08c379a00000000000000000000000000000000000000000000000000000000081526004016200024d90620007ce565b60405180910390fd5b60008251116200029d576040517f08c379a00000000000000000000000000000000000000000000000000000000081526004016200029490620007f0565b60405180910390fd5b8051825114620002e4576040517f08c379a0000000000000000000000000000000000000000000000000000000008152600401620002db906200078a565b60405180910390fd5b60005b825181101562000422576000604051806040016040528085848151811062000338577f4e487b7100000000000000000000000000000000000000000000000000000000600052603260045260246000fd5b602002602001015181526020018484815181106200037f577f4e487b7100000000000000000000000000000000000000000000000000000000600052603260045260246000fd5b60200260200101518152509050600160008673ffffffffffffffffffffffffffffffffffffffff1673ffffffffffffffffffffffffffffffffffffffff16815260200190815260200160002081908060018154018082558091505060019003906000526020600020906002020160009091909190915060008201518160000155602082015181600101555050508080620004199062000922565b915050620002e7565b508060405162000433919062000754565b6040518091039020826040516200044b919062000754565b60405180910390207f84a673e4138ab8e8cfd2c21ea135a7a3cd0f892aa79d1559d2c9cd9c3f7ab595856040516200048491906200076d565b60405180910390a3505050565b60008060009054906101000a900473ffffffffffffffffffffffffffffffffffffffff16905090565b6000620004d1620004cb846200083b565b62000812565b90508083825260208201905082856020860282011115620004f157600080fd5b60005b858110156200052557816200050a888262000573565b845260208401935060208301925050600181019050620004f4565b5050509392505050565b600081519050620005408162000a83565b92915050565b600082601f8301126200055857600080fd5b81516200056a848260208601620004ba565b91505092915050565b600081519050620005848162000a9d565b92915050565b600080600060608486031215620005a057600080fd5b6000620005b0868287016200052f565b935050602084015167ffffffffffffffff811115620005ce57600080fd5b620005dc8682870162000546565b925050604084015167ffffffffffffffff811115620005fa57600080fd5b620006088682870162000546565b9150509250925092565b600062000620838362000743565b60208301905092915050565b6200063781620008ae565b82525050565b60006200064a826200087a565b62000656818562000892565b935062000663836200086a565b8060005b838110156200069a5781516200067e888262000612565b97506200068b8362000885565b92505060018101905062000667565b5085935050505092915050565b6000620006b66013836200089d565b9150620006c382620009df565b602082019050919050565b6000620006dd6020836200089d565b9150620006ea8262000a08565b602082019050919050565b6000620007046011836200089d565b9150620007118262000a31565b602082019050919050565b60006200072b600d836200089d565b9150620007388262000a5a565b602082019050919050565b6200074e81620008e2565b82525050565b60006200076282846200063d565b915081905092915050565b60006020820190506200078460008301846200062c565b92915050565b60006020820190508181036000830152620007a581620006a7565b9050919050565b60006020820190508181036000830152620007c781620006ce565b9050919050565b60006020820190508181036000830152620007e981620006f5565b9050919050565b600060208201905081810360008301526200080b816200071c565b9050919050565b60006200081e62000831565b90506200082c8282620008ec565b919050565b6000604051905090565b600067ffffffffffffffff8211156200085957620008586200099f565b5b602082029050602081019050919050565b6000819050602082019050919050565b600081519050919050565b6000602082019050919050565b600081905092915050565b600082825260208201905092915050565b6000620008bb82620008c2565b9050919050565b600073ffffffffffffffffffffffffffffffffffffffff82169050919050565b6000819050919050565b620008f782620009ce565b810181811067ffffffffffffffff821117156200091957620009186200099f565b5b80604052505050565b60006200092f82620008e2565b91507fffffffffffffffffffffffffffffffffffffffffffffffffffffffffffffffff82141562000965576200096462000970565b5b600182019050919050565b7f4e487b7100000000000000000000000000000000000000000000000000000000600052601160045260246000fd5b7f4e487b7100000000000000000000000000000000000000000000000000000000600052604160045260246000fd5b6000601f19601f8301169050919050565b7f73686f756c642062652073616d652073697a6500000000000000000000000000600082015250565b7f4f776e61626c653a2063616c6c6572206973206e6f7420746865206f776e6572600082015250565b7f616464206578697374656420746f6b656e000000000000000000000000000000600082015250565b7f696e76616c696420696e70757400000000000000000000000000000000000000600082015250565b62000a8e81620008ae565b811462000a9a57600080fd5b50565b62000aa881620008e2565b811462000ab457600080fd5b50565b6119d28062000ac76000396000f3fe608060405234801561001057600080fd5b50600436106100a95760003560e01c80639caa7aa9116100715780639caa7aa914610152578063adf069ea14610182578063c3bb26a1146101b2578063c81d80ed146101ce578063f2fde38b146101ec578063f5a14f3714610208576100a9565b8063115f3ca3146100ae578063715018a6146100ca57806388d8da5f146100d45780638da5cb5b1461010457806391d6836014610122575b600080fd5b6100c860048036038101906100c39190611135565b610238565b005b6100d2610562565b005b6100ee60048036038101906100e991906111f0565b6105ea565b6040516100fb919061143b565b60405180910390f35b61010c610730565b6040516101199190611420565b60405180910390f35b61013c600480360381019061013791906111b4565b610759565b6040516101499190611516565b60405180910390f35b61016c600480360381019061016791906111b4565b610960565b604051610179919061143b565b60405180910390f35b61019c600480360381019061019791906111f0565b610976565b6040516101a9919061143b565b60405180910390f35b6101cc60048036038101906101c79190611135565b610a8d565b005b6101d6610be9565b6040516101e39190611420565b60405180910390f35b6102066004803603810190610201919061110c565b610c01565b005b610222600480360381019061021d919061125c565b610cf9565b60405161022f919061143b565b60405180910390f35b610240610d20565b73ffffffffffffffffffffffffffffffffffffffff1661025e610730565b73ffffffffffffffffffffffffffffffffffffffff16146102b4576040517f08c379a00000000000000000000000000000000000000000000000000000000081526004016102ab90611496565b60405180910390fd5b6000600160008573ffffffffffffffffffffffffffffffffffffffff1673ffffffffffffffffffffffffffffffffffffffff1681526020019081526020016000208054905014610339576040517f08c379a0000000000000000000000000000000000000000000000000000000008152600401610330906114b6565b60405180910390fd5b600082511161037d576040517f08c379a0000000000000000000000000000000000000000000000000000000008152600401610374906114f6565b60405180910390fd5b80518251146103c1576040517f08c379a00000000000000000000000000000000000000000000000000000000081526004016103b890611476565b60405180910390fd5b60005b82518110156104f95760006040518060400160405280858481518110610413577f4e487b7100000000000000000000000000000000000000000000000000000000600052603260045260246000fd5b60200260200101518152602001848481518110610459577f4e487b7100000000000000000000000000000000000000000000000000000000600052603260045260246000fd5b60200260200101518152509050600160008673ffffffffffffffffffffffffffffffffffffffff1673ffffffffffffffffffffffffffffffffffffffff168152602001908152602001600020819080600181540180825580915050600190039060005260206000209060020201600090919091909150600082015181600001556020820151816001015550505080806104f19061173a565b9150506103c4565b50806040516105089190611409565b60405180910390208260405161051e9190611409565b60405180910390207f84a673e4138ab8e8cfd2c21ea135a7a3cd0f892aa79d1559d2c9cd9c3f7ab595856040516105559190611420565b60405180910390a3505050565b61056a610d20565b73ffffffffffffffffffffffffffffffffffffffff16610588610730565b73ffffffffffffffffffffffffffffffffffffffff16146105de576040517f08c379a00000000000000000000000000000000000000000000000000000000081526004016105d590611496565b60405180910390fd5b6105e86000610d28565b565b6000808390506000839050600082511480610606575060008151145b8061061357508051825114155b156106235760009250505061072a565b60006001905060005b83518110156107225782818151811061066e577f4e487b7100000000000000000000000000000000000000000000000000000000600052603260045260246000fd5b602001015160f81c60f81b7effffffffffffffffffffffffffffffffffffffffffffffffffffffffffffff19168482815181106106d4577f4e487b7100000000000000000000000000000000000000000000000000000000600052603260045260246000fd5b602001015160f81c60f81b7effffffffffffffffffffffffffffffffffffffffffffffffffffffffffffff19161461070f5760009150610722565b808061071a9061173a565b91505061062c565b508093505050505b92915050565b60008060009054906101000a900473ffffffffffffffffffffffffffffffffffffffff16905090565b600080600160008573ffffffffffffffffffffffffffffffffffffffff1673ffffffffffffffffffffffffffffffffffffffff1681526020019081526020016000208054905014156107ae576000905061095a565b60006107b983610dec565b905060005b600160008673ffffffffffffffffffffffffffffffffffffffff1673ffffffffffffffffffffffffffffffffffffffff1681526020019081526020016000208054905081101561095357600061089b600160008873ffffffffffffffffffffffffffffffffffffffff1673ffffffffffffffffffffffffffffffffffffffff1681526020019081526020016000208381548110610884577f4e487b7100000000000000000000000000000000000000000000000000000000600052603260045260246000fd5b906000526020600020906002020160000154610dec565b90506108a78382610976565b1561093f57600160008773ffffffffffffffffffffffffffffffffffffffff1673ffffffffffffffffffffffffffffffffffffffff1681526020019081526020016000208281548110610923577f4e487b7100000000000000000000000000000000000000000000000000000000600052603260045260246000fd5b906000526020600020906002020160010154935050505061095a565b50808061094b9061173a565b9150506107be565b5060009150505b92915050565b60008061096d8484610759565b11905092915050565b600080839050600083905060006001905060005b8251811015610a80578281815181106109cc577f4e487b7100000000000000000000000000000000000000000000000000000000600052603260045260246000fd5b602001015160f81c60f81b7effffffffffffffffffffffffffffffffffffffffffffffffffffffffffffff1916848281518110610a32577f4e487b7100000000000000000000000000000000000000000000000000000000600052603260045260246000fd5b602001015160f81c60f81b7effffffffffffffffffffffffffffffffffffffffffffffffffffffffffffff191614610a6d5760009150610a80565b8080610a789061173a565b91505061098a565b5080935050505092915050565b610a95610d20565b73ffffffffffffffffffffffffffffffffffffffff16610ab3610730565b73ffffffffffffffffffffffffffffffffffffffff1614610b09576040517f08c379a0000000000000000000000000000000000000000000000000000000008152600401610b0090611496565b60405180910390fd5b6000600160008573ffffffffffffffffffffffffffffffffffffffff1673ffffffffffffffffffffffffffffffffffffffff1681526020019081526020016000208054905011610b8e576040517f08c379a0000000000000000000000000000000000000000000000000000000008152600401610b85906114d6565b60405180910390fd5b600160008473ffffffffffffffffffffffffffffffffffffffff1673ffffffffffffffffffffffffffffffffffffffff1681526020019081526020016000206000610bd99190610f99565b610be4838383610238565b505050565b734e64198c1e13248bfc0e63d53e03460dbb383a9481565b610c09610d20565b73ffffffffffffffffffffffffffffffffffffffff16610c27610730565b73ffffffffffffffffffffffffffffffffffffffff1614610c7d576040517f08c379a0000000000000000000000000000000000000000000000000000000008152600401610c7490611496565b60405180910390fd5b600073ffffffffffffffffffffffffffffffffffffffff168173ffffffffffffffffffffffffffffffffffffffff161415610ced576040517f08c379a0000000000000000000000000000000000000000000000000000000008152600401610ce490611456565b60405180910390fd5b610cf681610d28565b50565b6000610d19734e64198c1e13248bfc0e63d53e03460dbb383a9483610960565b9050919050565b600033905090565b60008060009054906101000a900473ffffffffffffffffffffffffffffffffffffffff169050816000806101000a81548173ffffffffffffffffffffffffffffffffffffffff021916908373ffffffffffffffffffffffffffffffffffffffff1602179055508173ffffffffffffffffffffffffffffffffffffffff168173ffffffffffffffffffffffffffffffffffffffff167f8be0079c531659141344cd1fd0a4f28419497f9722a3daafe3b4186f6b6457e060405160405180910390a35050565b60606000821415610e34576040518060400160405280600181526020017f30000000000000000000000000000000000000000000000000000000000000008152509050610f94565b600082905060005b60008214610e66578080610e4f9061173a565b915050600a82610e5f919061164d565b9150610e3c565b60008167ffffffffffffffff811115610ea8577f4e487b7100000000000000000000000000000000000000000000000000000000600052604160045260246000fd5b6040519080825280601f01601f191660200182016040528015610eda5781602001600182028036833780820191505090505b5090505b60008514610f8d57600182610ef3919061167e565b9150600a85610f029190611783565b6030610f0e91906115f7565b60f81b818381518110610f4a577f4e487b7100000000000000000000000000000000000000000000000000000000600052603260045260246000fd5b60200101907effffffffffffffffffffffffffffffffffffffffffffffffffffffffffffff1916908160001a905350600a85610f86919061164d565b9450610ede565b8093505050505b919050565b5080546000825560020290600052602060002090810190610fba9190610fbd565b50565b5b80821115610fe057600080820160009055600182016000905550600201610fbe565b5090565b6000610ff7610ff284611556565b611531565b9050808382526020820190508285602086028201111561101657600080fd5b60005b85811015611046578161102c88826110f7565b845260208401935060208301925050600181019050611019565b5050509392505050565b600061106361105e84611582565b611531565b90508281526020810184848401111561107b57600080fd5b6110868482856116fa565b509392505050565b60008135905061109d8161196e565b92915050565b600082601f8301126110b457600080fd5b81356110c4848260208601610fe4565b91505092915050565b600082601f8301126110de57600080fd5b81356110ee848260208601611050565b91505092915050565b60008135905061110681611985565b92915050565b60006020828403121561111e57600080fd5b600061112c8482850161108e565b91505092915050565b60008060006060848603121561114a57600080fd5b60006111588682870161108e565b935050602084013567ffffffffffffffff81111561117557600080fd5b611181868287016110a3565b925050604084013567ffffffffffffffff81111561119e57600080fd5b6111aa868287016110a3565b9150509250925092565b600080604083850312156111c757600080fd5b60006111d58582860161108e565b92505060206111e6858286016110f7565b9150509250929050565b6000806040838503121561120357600080fd5b600083013567ffffffffffffffff81111561121d57600080fd5b611229858286016110cd565b925050602083013567ffffffffffffffff81111561124657600080fd5b611252858286016110cd565b9150509250929050565b60006020828403121561126e57600080fd5b600061127c848285016110f7565b91505092915050565b600061129183836113fa565b60208301905092915050565b6112a6816116b2565b82525050565b60006112b7826115c3565b6112c181856115db565b93506112cc836115b3565b8060005b838110156112fd5781516112e48882611285565b97506112ef836115ce565b9250506001810190506112d0565b5085935050505092915050565b611313816116c4565b82525050565b60006113266026836115e6565b915061133182611852565b604082019050919050565b60006113496013836115e6565b9150611354826118a1565b602082019050919050565b600061136c6020836115e6565b9150611377826118ca565b602082019050919050565b600061138f6011836115e6565b915061139a826118f3565b602082019050919050565b60006113b26016836115e6565b91506113bd8261191c565b602082019050919050565b60006113d5600d836115e6565b91506113e082611945565b602082019050919050565b6113f4816116f0565b82525050565b611403816116f0565b82525050565b600061141582846112ac565b915081905092915050565b6000602082019050611435600083018461129d565b92915050565b6000602082019050611450600083018461130a565b92915050565b6000602082019050818103600083015261146f81611319565b9050919050565b6000602082019050818103600083015261148f8161133c565b9050919050565b600060208201905081810360008301526114af8161135f565b9050919050565b600060208201905081810360008301526114cf81611382565b9050919050565b600060208201905081810360008301526114ef816113a5565b9050919050565b6000602082019050818103600083015261150f816113c8565b9050919050565b600060208201905061152b60008301846113eb565b92915050565b600061153b61154c565b90506115478282611709565b919050565b6000604051905090565b600067ffffffffffffffff82111561157157611570611812565b5b602082029050602081019050919050565b600067ffffffffffffffff82111561159d5761159c611812565b5b6115a682611841565b9050602081019050919050565b6000819050602082019050919050565b600081519050919050565b6000602082019050919050565b600081905092915050565b600082825260208201905092915050565b6000611602826116f0565b915061160d836116f0565b9250827fffffffffffffffffffffffffffffffffffffffffffffffffffffffffffffffff03821115611642576116416117b4565b5b828201905092915050565b6000611658826116f0565b9150611663836116f0565b925082611673576116726117e3565b5b828204905092915050565b6000611689826116f0565b9150611694836116f0565b9250828210156116a7576116a66117b4565b5b828203905092915050565b60006116bd826116d0565b9050919050565b60008115159050919050565b600073ffffffffffffffffffffffffffffffffffffffff82169050919050565b6000819050919050565b82818337600083830152505050565b61171282611841565b810181811067ffffffffffffffff8211171561173157611730611812565b5b80604052505050565b6000611745826116f0565b91507fffffffffffffffffffffffffffffffffffffffffffffffffffffffffffffffff821415611778576117776117b4565b5b600182019050919050565b600061178e826116f0565b9150611799836116f0565b9250826117a9576117a86117e3565b5b828206905092915050565b7f4e487b7100000000000000000000000000000000000000000000000000000000600052601160045260246000fd5b7f4e487b7100000000000000000000000000000000000000000000000000000000600052601260045260246000fd5b7f4e487b7100000000000000000000000000000000000000000000000000000000600052604160045260246000fd5b6000601f19601f8301169050919050565b7f4f776e61626c653a206e6577206f776e657220697320746865207a65726f206160008201527f6464726573730000000000000000000000000000000000000000000000000000602082015250565b7f73686f756c642062652073616d652073697a6500000000000000000000000000600082015250565b7f4f776e61626c653a2063616c6c6572206973206e6f7420746865206f776e6572600082015250565b7f616464206578697374656420746f6b656e000000000000000000000000000000600082015250565b7f75706461746520756e6578697374656420746f6b656e00000000000000000000600082015250565b7f696e76616c696420696e70757400000000000000000000000000000000000000600082015250565b611977816116b2565b811461198257600080fd5b50565b61198e816116f0565b811461199957600080fd5b5056fea2646970667358221220cca0f8c04960a440b863db0675f3122bcb958766ae10a83f8f057a4bae8c078064736f6c63430008030033",
  "immutableReferences": {},
  "source": "// SPDX-License-Identifier: MIT\npragma solidity ^0.8.3;\n\nimport \"@openzeppelin/contracts/access/Ownable.sol\";\nimport \"@openzeppelin/contracts/utils/math/SafeMath.sol\";\nimport \"@openzeppelin/contracts/utils/Address.sol\";\nimport \"@openzeppelin/contracts/utils/Strings.sol\";\n\n// import \"../utils/StringUtils.sol\";\n\ncontract EBNftStakeRateHelper is Ownable {\n    using SafeMath for uint;\n    using Address for address;\n    using Strings for uint;\n    // using StringUtils for string;\n\n    struct NftInfo {\n        uint tokenPrefix;\n        uint boostRate;\n    }\n\n    address constant public STARRY = 0x4E64198C1E13248BfC0e63D53E03460dbB383a94;\n\n    mapping(address => NftInfo[]) private tokens;\n\n    event NftStakeRateUpdated(address token, uint[] indexed tokenPrefixes, uint[] indexed boostRates);\n\n    constructor(address _token, uint[] memory _tokenProfixes, uint[] memory _boostRates) {\n        addToken(_token, _tokenProfixes, _boostRates);\n    }\n\n    function addToken(address _token, uint[] memory _tokenProfixes, uint[] memory _boostRates) public onlyOwner {\n        require(tokens[_token].length == 0, \"add existed token\");\n        require(_tokenProfixes.length > 0, \"invalid input\");\n        require(_tokenProfixes.length == _boostRates.length, \"should be same size\");\n        for (uint i = 0; i < _tokenProfixes.length; i++) {\n            NftInfo memory newNftInfo = NftInfo(_tokenProfixes[i], _boostRates[i]);\n            tokens[_token].push(newNftInfo);\n        }\n        emit NftStakeRateUpdated(_token, _tokenProfixes, _boostRates);\n    }\n\n    function updateToken(address _token, uint[] memory _tokenProfixes, uint[] memory _boostRates) public onlyOwner {\n        require(tokens[_token].length > 0, \"update unexisted token\");\n        delete tokens[_token];\n        addToken(_token, _tokenProfixes, _boostRates);\n    }\n\n    function isStarryStakeableNft(uint _tokenId) public view returns (bool) {\n        return isStakeableNft(STARRY, _tokenId);\n    }\n\n    function isStakeableNft(address _token, uint _tokenId) public view returns (bool) {\n        return boostRate(_token, _tokenId) > 0;\n    }\n\n    function boostRate(address _token, uint _tokenId) public view returns (uint) {\n        if (tokens[_token].length == 0) {\n            return 0;\n        }\n        string memory tokenIdStr = _tokenId.toString();\n        for (uint i = 0; i < tokens[_token].length; i++) {\n            string memory tokenPrefix = tokens[_token][i].tokenPrefix.toString();\n            if (startsWith(tokenIdStr, tokenPrefix)) {\n            // if (tokenIdStr.startsWith(tokenPrefix)) {\n                return tokens[_token][i].boostRate;\n            }\n        }\n        return 0;\n    }\n\n    function startsWith(string memory _self, string memory _needle) public pure returns (bool) {\n        bytes memory self = bytes(_self);\n        bytes memory needle = bytes(_needle);\n        bool isStartsWithNeedle = true;\n        for (uint i = 0; i < needle.length; i++) {\n            if (self[i] != needle[i]) {\n                isStartsWithNeedle = false;\n                break;\n            }\n        }\n        return isStartsWithNeedle;\n    }\n\n    function equals(string memory _self, string memory _needle) public pure returns (bool) {\n        bytes memory self = bytes(_self);\n        bytes memory needle = bytes(_needle);\n        if (self.length == 0 || needle.length == 0 || self.length != needle.length) {\n            return false;\n        }\n        bool isEqual = true;\n        for (uint i = 0; i < self.length; i++) {\n            if (self[i] != needle[i]) {\n                isEqual = false;\n                break;\n            }\n        }\n        return isEqual;\n    }\n}",
  "sourcePath": "/Users/Cloud/work/benjamin/tokau/tech/eternalbond-contracts/contracts/periphery/EBNftStakeRateHelper.sol",
  "compiler": {
    "name": "solc",
    "version": "0.8.3+commit.8d00100c.Emscripten.clang"
  },
  "schemaVersion": "3.4.1",
  "updatedAt": "2021-10-28T09:47:01.591Z",
  "networkType": "ethereum",
  "devdoc": {
    "kind": "dev",
    "methods": {
      "owner()": {
        "details": "Returns the address of the current owner."
      },
      "renounceOwnership()": {
        "details": "Leaves the contract without owner. It will not be possible to call `onlyOwner` functions anymore. Can only be called by the current owner. NOTE: Renouncing ownership will leave the contract without an owner, thereby removing any functionality that is only available to the owner."
      },
      "transferOwnership(address)": {
        "details": "Transfers ownership of the contract to a new account (`newOwner`). Can only be called by the current owner."
      }
    },
    "version": 1
  },
  "userdoc": {
    "kind": "user",
    "methods": {},
    "version": 1
  }
}